{
  "contractName": "TodoList",
  "abi": [
    {
      "constant": true,
      "inputs": [],
      "name": "taskCount",
      "outputs": [
        {
          "name": "",
          "type": "uint256"
        }
      ],
      "payable": false,
      "stateMutability": "view",
      "type": "function",
      "signature": "0xb6cb58a5"
    }
  ],
  "bytecode": "0x608060405260008055348015601357600080fd5b506093806100226000396000f3fe6080604052600436106038577c01000000000000000000000000000000000000000000000000000000006000350463b6cb58a58114603d575b600080fd5b348015604857600080fd5b50604f6061565b60408051918252519081900360200190f35b6000548156fea165627a7a72305820daf3417a63d5f072b8f7b7ccafb8aa3415ec9f4c4626986f6cf4af0588cd4f070029",
  "source": "// SPDX-License-Identifier: MIT\r\npragma solidity ^0.5.0;\r\n\r\n// abi in the blockchain is the abstract binary interface\r\n// bytecode is made by the smart contract and is run on the ethereum vm\r\n\r\ncontract TodoList {\r\n    uint public taskCount = 0; // state variable, written to the blockchain, state of the variable is put onto the blockchain\r\n    \r\n}",
  "sourcePath": "D:/git/todolist/contracts/TodoList.sol",
  "compiler": {
    "name": "solc",
    "version": "0.5.1+commit.c8a2cb62.Emscripten.clang"
  },
  "schemaVersion": "3.0.1",
  "updatedAt": "2023-07-30T06:18:27.191Z",
  "devdoc": {
    "methods": {}
  },
  "userdoc": {
    "methods": {}
  }
}